:100000000C9415050C945C050C945C050C945C0533
:100010000C945C050C945C050C945C050C945C05DC
:100020000C945C050C945C050C9494260C94682745
:100030000C9422220C945C050C945C050C945C05D9
:100040000C945C050C945C050C945C050C945C05AC
:100050000C945C050C946D220C945C050C945C056E
:100060000C945C050C945C050C945C050C945C058C
:100070000C945C050C945C050C945C050C945C057C
:100080000C945C050C945C050C945C050C945C056C
:100090000C9408160C945C050C945C050C945C059F
:1000A0000C945C050C945C050C945C05000000004D
:1000B00000003E5B4F5B3E003E6B4F6B3E001C3EC4
:1000C0007C3E1C00183C7E3C18001C577D571C00D1
:1000D0001C5E7F5E1C0000183C180000FFE7C3E7B1
:1000E000FF00001824180000FFE7DBE7FF0030489E
:1000F0003A060E00262979292600407F05050700CB
:10010000407F05253F005A3CE73C5A007F3E1C1CBF
:100110000800081C1C3E7F0014227F2214005F5F31
:10012000005F5F0006097F017F00006689956A0015
:1001300060606060600094A2FFA2940008047E04E6
:10014000080010207E20100008082A1C0800081C47
:100150002A0808001E10101010000C1E0C1E0C00A7
:1001600030383E383000060E3E0E0600000000001B
:10017000000000005F000000000700070000147F7F
:10018000147F1400242A7F2A1200231308646200BB
:10019000364956205000000807030000001C224189
:1001A00000000041221C00002A1C7F1C2A000808B5
:1001B0003E080800008070300000080808080800A9
:1001C0000000606000002010080402003E51494514
:1001D0003E0000427F4000007249494946002141EB
:1001E000494D33001814127F10002745454539004A
:1001F0003C4A494931004121110907003649494922
:100200003600464949291E00000014000000004045
:1002100034000000000814224100141414141400C7
:100220000041221408000201590906003E415D59AF
:100230004E007C1211127C007F49494936003E4134
:10024000414122007F4141413E007F4949494100EF
:100250007F09090901003E41415173007F080808E8
:100260007F0000417F4100002040413F01007F08A6
:10027000142241007F40404040007F021C027F006A
:100280007F0408107F003E4141413E007F0909097B
:1002900006003E4151215E007F091929460026498A
:1002A0004949320003017F0103003F4040403F00C5
:1002B0001F2040201F003F4038403F0063140814B7
:1002C00063000304780403006159494D4300007F33
:1002D00041414100020408102000004141417F00DB
:1002E00004020102040040404040400000030708AF
:1002F00000002054547840007F284444380038449B
:1003000044442800384444287F003854545418008A
:1003100000087E0902001824241C78007F080404C9
:10032000780000447D4000002040403D00007F10E8
:100330002844000000417F4000007C0478047800DD
:100340007C08040478003844444438007C18242491
:100350001800182424187C007C0804040800485461
:100360005454240004043F4424003C4040207C00BA
:100370001C2040201C003C4030403C0044281028F9
:1003800044004C9090907C004464544C440000081D
:1003900036410000000077000000004136080000F0
:1003A0000201020402003C2623263C00000000005B
:1003B000000000000000000000000000C0E0F0F8B5
:1003C000F81800C0F0FCFEFFFFFFFFFFFFFF7E00FC
:1003D000000000000000000080C0E0E0E0E0E0E09D
:1003E000E0E0C0800000000080C0E0E0E0E0E0E08D
:1003F000E0E0C080000000E0E0C0C0E0E0E0E0003D
:1004000000E0E0C0C0E0E0E0E0E0C080000000000C
:1004100080C0E0E0E0E0E0E0E0E0C080000000005C
:1004200000000000000000000000E0F0F0F0E0EC50
:10043000EEF7F37020007C7C7C7E007E7E7E7F7FEA
:100440007F000080C0E07E5B4F5BFEC00000C0000C
:10045000DCD7DEDEDED7DC00C000000000000000DC
:10046000000000000000000000000000000000008C
:100470000000000000F8FCFEFFE000FFFFFFFFFFB0
:10048000FF80FFFFFFFFFFFFFFFFFF1F07010000CF
:1004900000000000000000FFFFFF810000000000DE
:1004A0000081C3C3C30000FFFFFF81000000000004
:1004B0000081FFFFFF0000FFFFFF010000000000C0
:1004C00000FFFFFF010000000001FFFFFF0000FF31
:1004D000FFFF9D1C1C1C1C1C1C9DDFDFDF0000009F
:1004E000000000000000000000000F1F3F7F7F7F22
:1004F0007F7F3F1E0C001F1F1F3F003F3F3F7F7F3E
:100500007F00307B7F7830202030787F3B000300F5
:100510000F7F0F0F0F7F0F0003000000000000008F
:1005200000000000000000000000000000000000CB
:100530000000000000030F1F3F3F3F3F1F1F3F3FD2
:100540007F7F7F3F3F1F3F7F7F7F7F7C7878381C96
:100550000F0000000000000001030707070707075E
:10056000070703010000000001030707070707074B
:100570000707030100000007070700000000000054
:100580000007070700000000000007070700000041
:10059000010307070707070707070301000000001B
:1005A000000000000000000000000000000000004B
:1005B000000000000000000000000000000000003B
:1005C000000000000000000000000000000000002B
:1005D000000000000000000000000000000000001B
:1005E00000000000000000000000000029001A00C8
:1005F000150000001C000C0013002D021400080060
:1006000017002A00180012002A002E022B62160082
:100610000900E3000B000E00330052000400070045
:100620000A0065000D000F004C002314E0001B00C1
:1006300019002C6411413600380051001D000600DD
:10064000054228721043370050004F001E00210061
:1006500022000000240026002D0000001F002100C1
:1006600023002A00250027002E0000002B62000036
:100670003502E3002F02310030005200000031004B
:100680003200650034002F004C000000E000000044
:1006900000002C64000036003800510064000000A7
:1006A000000028721000370050004F001E02200288
:1006B00022020000240226022D0200001F02210255
:1006C00023022A00250227022E02C35C2B623B0074
:1006D0003D00E3003F00410043004B003A003C0076
:1006E0003E006500400042004C000000E000450074
:1006F0007D002C640000360038004E0044007C0071
:1007000000002872100037004A004D002900201414
:100710002114000024142F002D14BF5C1F14081492
:1007200022142A00251427142E14C25C2B62000008
:100730000000E3002314000000004B000000000054
:1007400021146500340200002E140000E0000000B7
:1007500000002C640000360238024E000000000049
:1007600022002872100237024A004D0000047F3F29
:100770001F643214643214783C1E1E140A052223AE
:10078000252628292A2C2D2F3032333536383A3B6E
:100790003D3E4042434547494A4C4E5051535557C0
:1007A000595A5C5E6062646668696B6D6F717375DF
:1007B00077797B7D7F81838587898A8C8E909294DF
:1007C00096989A9C9E9FA1A3A5A7A8AAACAEAFB1EC
:1007D000B3B4B6B8B9BBBCBEBFC1C2C3C5C6C7C936
:1007E000CACBCCCDCED0D1D2D2D3D4D5D6D7D7D8F0
:1007F000D9D9DADADBDBDBDCDCDCDCDCDDDDDDDD42
:10080000DCDCDCDCDCDBDBDBDADAD9D9D8D7D7D649
:10081000D5D4D3D2D2D1D0CECDCCCBCAC9C7C6C500
:10082000C3C2C1BFBEBCBBB9B8B6B4B3B1AFAEAC46
:10083000AAA8A7A5A3A19F9E9C9A98969492908EF1
:100840008C8A89878583817F7D7B79777573716FCA
:100850006D6B6968666462605E5C5A5957555351A6
:10086000504E4C4A4947454342403E3D3B3A38365C
:10087000353332302F2D2C2A292826252322FFAA72
:100880007F55400001010101010101010102020245
:10089000020202020202030303030303030304042C
:1008A00004040404040505050505060606060607F6
:1008B0000707070708080808090909090A0A0A0BAF
:1008C0000B0B0C0C0C0D0D0D0E0E0E0F0F0F101050
:1008D00011111112121313141415151616171718D7
:1008E0001819191A1A1B1B1C1D1D1E1E1F20202142
:1008F0002222232424252626272829292A2B2C2D89
:100900002D2E2F30313232333435363738393A3BA9
:100910003C3D3E3F404142434445464748494A4C9E
:100920004D4E4F50515354555658595A5B5D5E5F6A
:10093000616264656668696B6C6D6F707273757700
:10094000787A7B7D7E8082838587888A8C8E8F9162
:10095000939596989A9C9EA0A2A3A5A7A9ABADAF8C
:10096000B1B3B5B7BABCBEC0C2C4C6C9CBCDCFD176
:10097000D4D6D8DBDDDFE2E4E7E9EBEEF0F3F5F81F
:10098000FAFDFF0403300000000E036B006F0070DF
:10099000006500730068000000160371006D006BB5
:1009A000006200750069006C006400650072000060
:1009B000000403090409022200010100A0FA09044D
:1009C0000000010301010009211101000122400082
:1009D0000705810308000A1201100100000008ED5C
:1009E000FE606001000102030105010906A1010585
:1009F0000719E029E7150025019508750181029581
:100A000001750881010507190029FF150026FF005F
:100A100095067508810005081901290595057501D8
:100A20009102950175039101C00011241FBECFEF03
:100A3000DAE0DEBFCDBF04B603FE27C080917203AB
:100A400090917303A0917403B09175038730904B1C
:100A5000A740B04BD1F4109272031092730310921E
:100A600074031092750314BE84B7877F84BF0FB6DA
:100A7000F894A8958091600088618093600010923E
:100A800060000FBEE0E0F8E3099511E0A0E0B1E0FE
:100A9000E2E0FAE502C005900D92AA3EB107D9F74F
:100AA00023E0AAEEB1E001C01D92A237B207E1F740
:100AB0000E94D7230C94C32C0C940000CF93C82F12
:100AC00088E70E94C615882311F0C0E00BC080E0C3
:100AD0000E94F9158111F9CF8C2F0E94F915C1E000
:100AE0008111F3CF0E94ED158C2FCF910895CF93F4
:100AF000C62F0E945E05882321F08C2FCF910C9485
:100B00005E0580E0CF910895CF93C62F0E945E05C9
:100B1000882349F080E00E945E05882321F08C2F15
:100B2000CF910C945E0580E0CF9108958EEA0C94ED
:100B30005E058FEA0C945E050F931F93CF93DF93AE
:100B4000EC018C010C5A1F4FD801ED91FC911197CB
:100B500060838D919C91119701968D939C938C1B32
:100B60009D0B84359105B9F4BE016B5E7F4F4FE359
:100B700050E0CE010E947C29CE01CF96F8019183EE
:100B8000808345E150E060E270E0DF91CF911F91FA
:100B90000F910C948E29DF91CF911F910F910895A1
:100BA0001F93CF93DF93EC01FC01EA5AFF4F81E0E2
:100BB00080836A30B1F43297808191818C1B9D0BC8
:100BC00065E170E00E943C29182F153120F0DF917B
:100BD000CF911F91089560E2CE010E949C051F5F96
:100BE000F4CFCE01DF91CF911F910C949C05EF9231
:100BF000FF920F931F93CF93DF937C01EB01FB01D7
:100C000001900020E9F78F0101501109C017D107A9
:100C100038F0DF91CF911F910F91FF90EF900895E1
:100C20006991C7010E94D005F1CFCF92DF92EF9278
:100C3000FF920F931F93CF93DF93CDB7DEB77C0165
:100C40000DB71EB7DB010D900020E9F7CD01861B23
:100C5000970B01962DB73EB7281B390B0FB6F894AA
:100C60003EBF0FBE2DBFADB7BEB711966D017F93CE
:100C70006F932EE131E03F932F939F938F93DF92F9
:100C8000AF930E949C29B601C7010E94F7052DB7BA
:100C90003EB7285F3F4F0FB6F8943EBF0FBE2DBF43
:100CA0000FB6F8941EBF0FBE0DBFDF91CF911F91FD
:100CB0000F91FF90EF90DF90CF900895CF93DF9347
:100CC000EC0144E550E060E270E00E948E29FE01F4
:100CD000EC5AFF4FD183C083CA5ADF4F81E088832B
:100CE000DF91CF9108957F928F929F92AF92BF92A2
:100CF000CF92DF92EF92FF920F931F93CF93DF93E8
:100D00008C010E9452229093EB018093EA010E9491
:100D1000990563E082E20E9484058823C9F16DE7AA
:100D200081E20E948405882399F188E70E94C61514
:100D300081112EC080E40E94F915811129C078012B
:100D4000480184E5880E911C96E0792E5701D12C3C
:100D5000F501C1915F01C79DE0011124C455DF4F2A
:100D600086E0C82EFE0184910E94F915CA9421964E
:100D7000C110F8CFD394F5E1DF12EACF85E1E80E98
:100D8000F11C8E149F0411F7F801EA5AFF4F1082EC
:100D9000DF91CF911F910F91FF90EF90DF90CF9057
:100DA000BF90AF909F908F907F900C94ED1588EB43
:100DB00092E00C9473061F93CF93DF93C82F0E9489
:100DC000C0158EEA0E945E05811106C0C0E08C2F1E
:100DD000DF91CF911F91089560E885ED0E9477051E
:100DE0008823A1F36FE188EA0E947705882371F3D5
:100DF00060E083ED0E947705882341F380E40E9440
:100E00005E05882319F364E18DE80E947705882345
:100E1000E9F260E080E20E9477058823B9F2CC23F2
:100E200009F465C080EA0E945E05882379F280ECAF
:100E30000E945E05882351F262E08AED0E947705E8
:100E4000882321F26FE881E80E947705882309F45E
:100E5000BDCF61EF89ED0E947705882309F4B6CFF5
:100E600060E48BED0E947705882309F4AFCF84EA14
:100E70000E945E05882309F4A9CF86EA0E945E05D8
:100E8000882309F4A3CF8EE20E945E05882309F42B
:100E90009DCF8FEA0E945E05882309F497CF60E01A
:100EA00081E80E947705C82F882309F48FCF88EB4B
:100EB00092E00E945E0663E082E20E94840588233D
:100EC00089F06FE781E20E948405882359F088E762
:100ED0000E94C615811106C080E40E94F91514E035
:100EE0008823A9F00E94ED150E94D70670CF81EAF1
:100EF0000E945E05882309F469CF88EC99CF80E0D1
:100F00000E94F915DF5FD038D1F7115011F0D0E011
:100F1000F6CF10920E03E6CF0E94F90880910E03DF
:100F2000811104C080910001882321F00E94D7061E
:100F3000109200018091EA019091EB010E945E22E3
:100F400081369A4E10F00C949605089581E08093B6
:100F5000000108958091960290919702A0919802C5
:100F6000B091990284309105A105B105E1F128F510
:100F70000097A105B10571F16EE371E08230910532
:100F8000A105B10549F1BF93AF939F938F9389E575
:100F900091E09F938F931F9288E18F938FE093E06E
:100FA0009F938F930E949C298DB79EB70A960FB688
:100FB000F8949EBF0FBE8DBF13C088309105A10568
:100FC000B10529F08E309105A105B105E1F66BE47C
:100FD00071E002C062E271E08FE093E00E94952927
:100FE0008FE093E0089561E371E0F6CFCF93C0E224
:100FF0008C33910520F4FC01E558FE4FC0811F920F
:10100000CF939F938F93FB0180811F928F93818158
:101010001F928F938AE691E09F938F931F9288E1AE
:101020008F9383E092E09F938F930E949C298DB7CA
:101030009EB70E960FB6F8949EBF0FBE8DBF8091DF
:10104000EC019091ED01449761F41092ED01109242
:10105000EC01EEEEF1E080E2819392E0E230F907FC
:10106000D9F78091EC019091ED01FC01E251FE4F26
:10107000C08301969093ED018093EC01CF91089588
:1010800083E092E008958EEE91E008950F931F9310
:10109000CF93DF93EC018B010E94A607882351F0C8
:1010A000B801CE010E941D098170DF91CF911F917F
:1010B0000F91089580E0F8CFCF93DF93EC010E9469
:1010C000E520BE0190E080E0DF91CF910C943B1EC3
:1010D00080913503869590E09093280380932703B1
:1010E00080E00C94DB068F929F92AF92BF92CF92DA
:1010F000DF92EF92FF920F931F93C12CD12C7601B8
:10110000C3949701860104C0000F111F221F331FD3
:101110006A95D2F74601570104C0880C991CAA1C95
:10112000BB1C8A95D2F7D501C401802B912BA22B31
:10113000B32B009196021091970220919802309162
:101140009902082319232A233B2380179107A2071A
:10115000B30769F4842F1F910F91FF90EF90DF90F8
:10116000CF90BF90AF909F908F900C949D1E842F36
:101170001F910F91FF90EF90DF90CF90BF90AF90B5
:101180009F908F900C94BE1E0C948C07CF93DF938E
:10119000EC010E94AA07BC01CE010E9415060E9424
:1011A0004008BC01CE010E9415060E944308BC0104
:1011B000CE01DF91CF910C9415060F931F93CF931F
:1011C000DF93EC018B0144E550E00E946F29892BED
:1011D00059F084E5F801DE0101900D928A95E1F75E
:1011E000CA5ADF4F81E08883DF91CF911F910F9121
:1011F0000895CF93DF93CDB7DEB7C755D1090FB6AA
:10120000F894DEBF0FBECDBFCE0101960E945E06F0
:10121000CE0101960E94C608BE016F5F7F4F88EB2A
:1012200092E00E94DD08C95ADF4F0FB6F894DEBF86
:101230000FBECDBFDF91CF9108950F931F93CF9332
:10124000DF938C01EB018A81882319F0C8010E9489
:10125000F60709308DE5180791F170F4033C8CE531
:101260001807D9F108301D45A9F0C1E08C2FDF9196
:10127000CF911F910F9108950A308DE5180799F0CD
:101280000B301D4591F7CA8183E0CC2319F10E94F0
:101290009D1E07C0CA81CC2349F381E090E00E94E3
:1012A0005C08C0E0E3CFCA8182E0CC2359F00E9401
:1012B0009D1E43E061E082E00E947308F2CFCA8184
:1012C00081E0F3CF0E94BE1E43E061E082E00E9415
:1012D0007308CCCF0E94BE1EC9CFCA81CC2331F285
:1012E0000E940D0E0E94131280913503869590E0A6
:1012F0009093280380932703D4CF089581E0089525
:1013000008950C9480091F93CF93DF9300D000D0F1
:101310000F92CDB7DEB749835A836B8330913F027A
:1013200089819A8131111DC06623B9F02223A9F069
:101330000E948E1F182F682F89819A810E94391F61
:1013400069817A81812F0F900F900F900F900F90ED
:10135000DF91CF911F910C94380A0E94661F182FBD
:10136000EFCF0E948E1F69817A81EDCFFC01262F7D
:10137000408151816281738184810C948309CF9370
:10138000DF93EC0160E00E94B609BE01DF91CF91CE
:101390000C9481090E94D220811102C00E94742104
:1013A0000C94220C0C94240C0C947D0981E008957B
:1013B0000C94D609CF93C82F0E94D4098C2FCF91BB
:1013C0000C94D80908950E94A31A0E94E2092FEFF5
:1013D00084E39CE0215080409040E1F700C0000091
:1013E0000C9491220F931F93CF93DF93EC0161E054
:1013F0000E94B6098C01BE010E944608882359F15B
:10140000BE01C8010E942914882329F1BE01C80128
:101410000E946A148823F9F0BE01C8010E948D154C
:101420008823C9F0BE01C8010E940D13882399F0DA
:101430008A81882339F001158CE5180751F00E3D9B
:101440001C4579F0CE01DF91CF911F910F910C9443
:101450007E090E94E30980E0DF91CF911F910F91F7
:1014600008950E947421F7CF90E080E008950895D8
:10147000E72FF0E096E0899FE00DF11D112483E055
:10148000EE0FFF1F8A95E1F7E60FF11DEE0FFF1F2C
:10149000E451FA4F859194910895FC01EE0FFF1FDE
:1014A000E459F84F859194910895CF93DF930E946A
:1014B000380A0E94480BEC01811521E59207D0F50E
:1014C000811530E5930708F096C081159042F8F435
:1014D000C11581E0D807B8F4C03ED10588F4C03CFE
:1014E000D10508F07BC0C130D10569F0209759F0D3
:1014F000CE010497813A910530F0D0E0C0E003C0FE
:10150000C83ED105D0F7CE01DF91CF910895C11526
:1015100090E4D90708F06CC0CE019F70C11520E39C
:10152000D20708F45EC0CE019927D3FF5EC0EC015C
:10153000D86CE9CF811535E5930700F5811544E5B1
:10154000940708F08DC0C11583E5D80708F074C072
:10155000C11592E5D90708F46AC0CE0183709927B6
:1015600021E030E002C0220F331F8A95E2F7C695D2
:10157000C69580E2C89FE001112455C0811529E578
:101580009207A0F4811538E5930708F06EC0811525
:1015900046E5940708F0B1CF0E94DF0BC82FD0E0DA
:1015A000DC2FCC27CC27DF71D062ADCFC1158AE507
:1015B000D80708F45FC0CE0190568115904208F01C
:1015C0009CCF8D2F8F710E94DF0B90E0982F882782
:1015D00088279F719C012C2BE901E6CFCE01805C0E
:1015E00091090E944D0AEC018ECFEC01D06C8BCF9B
:1015F000DF70D06A88CFE4E096958795EA95E1F7A9
:1016000083702C2F26952695237040E2249F90010D
:101610001124382B8C2F8370C1E0D0E002C0CC0F96
:10162000DD1F8A95E2F7C22BD32BDC686CCFDC2F51
:10163000CC27C16FD06A67CFCE018370992721E094
:1016400030E002C0220F331F8A95E2F7C695C69597
:1016500090E2C99FE0011124C22BD32BDA6853CF4B
:10166000D82FCC27C46FD06A4ECFD82FCC27C06FCD
:10167000D06A49CF8C2F8F700E94DF0B34E0D69553
:10168000C7953A95E1F7CF709C2FEC01D0693BCF1D
:1016900082389105B1F1B0F48133910509F475C038
:1016A00048F48932910509F469C08A32910509F438
:1016B00073C008958533910509F459C089339105A4
:1016C00001F10895833E9105A9F138F4803E91051A
:1016D000F9F0823E910549F10895863E9105A9F100
:1016E000873E9105C9F1843E910519F52091640367
:1016F00021FF1FC08091630384FD14C087EE90E03A
:101700000895209163032370A1F080EE90E0089586
:101710002091630320FD47C03091640330FF09C06E
:1017200024FF44C090E080E004C02091630322FDC8
:10173000F7CF08952091630322FD3BC030916403ED
:1017400030FDE3CF24FFF5CFEDCF2091630323FFDE
:10175000F0CF24FDE7CFD2CF2091630323FD2CC02F
:101760003091640331FFEECF84EE90E00895209134
:10177000630325FFDECF89E290E0089520916303A3
:1017800025FFD7CF85E390E008952091630326FFDE
:10179000D0CF8AE290E008952091630326FFC9CF5D
:1017A00081E390E0089589E390E0089583EE90E06E
:1017B000089582EE90E0089586EE90E0089590916D
:1017C000630392FF06C0282F28712830F9F4877F21
:1017D000846093FF06C0282F28712831F1F4877E9A
:1017E00084612091640320FF06C0382F387138309F
:1017F000D9F4877F816021FF06C0282F2871283106
:10180000D1F4877E816194FD877E0895282F24710D
:101810002430F9F68B7F8860DCCF282F24712431A7
:1018200001F78B7E8861DDCF382F3171313019F7A8
:101830008E7F8860E0CF282F2171213121F78E7EA5
:101840008861E1CF0C9468080C94C408E82FF0E09C
:10185000E15DFC4F80810895089580EA8A95F1F753
:101860000895AFEBB1E061E070E08D91E82FE29573
:10187000EF70F0E041A18F709B0101C0220F8A95AB
:10188000EAF7922F9095942391A382A1822B82A3B1
:1018900081E0A53CB80749F7A7EBB1E061E070E053
:1018A0008D91E82FE295EF70F0E041A18F709B01E0
:1018B00001C0220F8A95EAF7922F9095942391A365
:1018C00082A1822B82A381E0AF3BB80749F7E9E20E
:1018D000F3E0AFE2B3E08FE293E011921D928E1736
:1018E0009F07D9F786E00E94040D0C94CA094F9215
:1018F0005F927F928F929F92AF92BF92CF92DF9230
:10190000EF92FF920F931F93CF93DF9309E213E0BF
:101910009FEBA92E91E0B92E912CCC24C394D12C0D
:10192000D8017C90F80111928F01D5018D915D0154
:10193000C82FC295CF70D0E099A18F70760101C0F9
:10194000EE0C8A95EAF7892F8E2989A38AA18E2C1D
:10195000809488218AA30E942D0C87EB482E81E079
:10196000582E30E020E0F8013197D2014D912D0141
:10197000842F82958F7090E0DC0190968C9160812D
:1019800090E04F7002C0959587954A95E2F780FDEB
:1019900039C08C2D022E01C0880F0A94EAF7862BDD
:1019A00080832F5F3F4F28303105F9F689A18822C7
:1019B00089A28AA1E82AEAA281E09081971101C058
:1019C00080E0982AB3E00F321B0709F0A9CF292D38
:1019D00046E06FE273E089E293E00E94050D0E9409
:1019E000D209892DDF91CF911F910F91FF90EF9038
:1019F000DF90CF90BF90AF909F908F907F905F903F
:101A00004F90089580E0CBCF0895FF920F931F93DE
:101A1000CF93DF93F82E092F162FD72FC42F222311
:101A200049F081E080931D020E94522290931C0293
:101A300080931B0280911D028823A1F080911B02DC
:101A400090911C020E945E22069760F0EF2DF02F0D
:101A5000A12FBD2FCE0FDF2FD11DEC17FD0741F4B5
:101A600010921D02DF91CF911F910F91FF90089569
:101A700081918D93F2CFAF92BF92CF92DF92FF927E
:101A80000F931F93CF93DF93362F472FE82FF0E06C
:101A9000ED57F74F71110DC06491762F862FDF91AE
:101AA000CF911F910F91FF90DF90CF90BF90AF909B
:101AB0000895C72FD0E02491F22E022F10E056E0B7
:101AC000659FC0011124EFEFF0E0BF010E942829BB
:101AD000832F90E0880F991F35E5369FD001379FFF
:101AE000B00D11248A1B9B0B982F990F980F6F0133
:101AF000CC1ADD0AC09ED001C19EB00DD09EB00DA3
:101B000011248B2F949FA0011124452F55276F017D
:101B1000C41AD50AC09EA001C19E500DD09E500D82
:101B200011245F01A91AB108AC9E6001AD9ED00CD2
:101B3000BC9ED00C1124CD2CDD24EC19FD09E09FB6
:101B4000E001E19FD00DF09FD00D1124ED2F623008
:101B50007105A1F048F46115710569F061307105F6
:101B600089F0EB2F852F07C06430710571F088F084
:101B700066307105B1F76E2F722F91CFE22F2B2FA8
:101B80008D2FF9CFE22F252FF6CFEB2F822F2D2F80
:101B9000F2CF2B2F8F2DE52FEECF0895CF93DF932C
:101BA000762FE901682F842F0E943B0D798368838B
:101BB0008A83DF91CF910895493708F048E70C9464
:101BC000CE0D80913503982F9E7F61F481708260E5
:101BD0008093350380913803893718F088E7809324
:101BE000380308958A34B0F381708864F1CF88E0B7
:101BF00090E00C944C2CCF92DF92EF92FF926B010D
:101C00007C010E94E10DB701A60188E090E0FF9001
:101C1000EF90DF90CF900C946A2CE5E3F3E083E043
:101C2000808311828FEF828388E7838314826081AF
:101C30007181828193810C94FB0D8091350380FF2B
:101C400002C08695089580E008958091390383301D
:101C500018F48F5F809339036091350370913603D8
:101C600080913703909138030C94FB0D80913903D8
:101C7000882319F081508093390360913503709166
:101C8000360380913703909138030C94FB0D6091DB
:101C9000050170E08091350380FF0AC08091220227
:101CA00023E0829FC0011124865C9C4F0C94B913E1
:101CB000809121029091040123E0829FF001112480
:101CC000E65CFC4F891750F71182108212828F5FF9
:101CD0003396F8CF9091350390FF14C09091210274
:101CE0002091040133E0939FF0011124E65CFC4F46
:101CF000921710F00C94470E8183608342839F5F9C
:101D00003396F6CF0895CF93DF9300D00F92CDB7DF
:101D1000DEB79091350390FF0AC09E012F5F3F4FC1
:101D20000E94DC0D4B8169818A810E946A0E0F90AE
:101D30000F900F90DF91CF910895CF93DF93EC0137
:101D4000EC81F0E0E258F84F4491E5E3F3E0628182
:101D500081810E94830E8C818F5F8C83DF91CF9174
:101D60000895CF93DF93EC01E5E3F3E043816281D3
:101D70008C810E94830E8C818F5F8C83DF91CF9149
:101D800008950F931F93CF93DF9300D00F92CDB799
:101D9000DEB78C0180911E0281110AC09E012F5F67
:101DA0003F4F48E76FEF0E94DC0D8A8180931E024F
:101DB000F8016481613069F080911E0240E0662381
:101DC00061F040E0623011F440911E0280E060E07A
:101DD00004C060911E0240E080E00E946A0EF8019B
:101DE000848190E0019663E070E00E943C29848346
:101DF0000F900F900F90DF91CF911F910F91089549
:101E0000AF92BF92CF92DF92EF92FF920F931F9308
:101E1000CF93DF9300D00F92CDB7DEB7182FF62EF9
:101E2000042FE22E9091350390FF29C0E92FE6950B
:101E3000AE2FB0E0AB53BE4F8C9180932A029E7FB1
:101E4000923059F59E012F5F3F4F812F0E94DC0D8C
:101E50004B8169818A810E946A0E10933603F09249
:101E6000370300933803EE2051F0609135037091F1
:101E7000360380913703909138030E94FB0D0F9039
:101E80000F900F90DF91CF911F910F91FF90EF90E6
:101E9000DF90CF90BF90AF900895823019F40091F9
:101EA0003803DBCF863019F410913603D6CF893052
:101EB000D9F3893191F6E9518E2F8170D82EE695AC
:101EC000F0E0E258F74FA590B490C12CBB2460918C
:101ED0000301C61618F00E94470EBFCF2C2D30E02C
:101EE000A29EC001A39E900DB29E900D112470E0A1
:101EF0000E942829812FD11013C0860F4091210202
:101F0000420F532F511D9A01220F331F240F351FEB
:101F1000265C3C4F402F6F2D0E94DC0DC394D7CF21
:101F2000861BECCFE5E3F3E09181282F43816281AA
:101F30008AE0890F0C94000F81E00C94920FE5E386
:101F4000F3E09181282F4381628186EF890F0C9401
:101F5000000F81E00C949F0FE5E3F3E0628121E143
:101F6000620F08F46FEF282F438181810C94000FDA
:101F700081E00C94AC0FE5E3F3E0628121E1621BA8
:101F800008F460E0282F438181810C94000F81E0E8
:101F90000C94BB0FE5E3F3E0438121E1420F08F429
:101FA0004FEF282F628181810C94000F81E00C9407
:101FB000CA0FE5E3F3E0438121E1421B08F440E06E
:101FC000282F628181810C94000F81E00C94D90F3D
:101FD00020E00C94000FEF92FF921F93CF93DF93BA
:101FE000EC0110E0EE24EA94F12C60910301161745
:101FF00070F00E94470E9A818C8190FF27C08F5FFE
:102000008C83DF91CF911F91FF90EF9008952091E5
:102010002102422F410F5527551FCA019A01220F55
:10202000331F280F391F265C3C4F70E0C7010E9408
:102030003C29962F8C814091380360913703199F7A
:10204000800D11240E94DC0D1F5FCFCF8150D8CFAF
:10205000AF92BF92CF92DF92EF92FF920F931F93B6
:10206000CF93DF93FC0182810FEF80FF01E010E04E
:1020700047E0A42E809103011817C8F00E94470E74
:1020800080912002013009F055C0811102C0809179
:102090000301815080932002DF91CF911F910F9116
:1020A000FF90EF90DF90CF90BF90AF900895C091D8
:1020B0002102C12ED12CCC0DDD2DD11DCE01880FDA
:1020C000991FC80FD91FC65CDC4F198218821A826B
:1020D00034E0E32EF12CB12C809120028B0D88305E
:1020E0001CF16A2D0E941A29892F082E000C990BC9
:1020F000C816D90691F4809138038E9DA0018F9D5A
:10210000500D112455954795559547959E01609121
:102110003703809136030E94DC0DB00EF1E0EF1A18
:10212000F108D1F61F5FA6CF87FFDFCF90910301A3
:10213000890FDBCF90E001966091030170E00E946F
:102140003C29A8CF0F931F93CF93DF938091210257
:102150009091040123E0829FF0011124E65CFC4F82
:10216000891740F1C0E0D3E060910301C61740F148
:102170000E94470E2091010180911F02820F8093DF
:102180001F0290910201920F90930201191654F4CC
:10219000082E000C990B409103014150550B8417F8
:1021A00095071CF0219520930101DF91CF911F919C
:1021B0000F9108951182108212828F5F3396D0CFD3
:1021C0000C2F10E070E0C8010E943C2920912102F0
:1021D000820F482F50E020911F02022E000C330B7B
:1021E00002171307BCF020910201022E000C330BE2
:1021F000201731077CF08D9F90011124265C3C4F05
:102200004091380360913703809136030E94DC0DC2
:10221000CF5FAACFFA01EE0FFF1FE40FF51FE65CB8
:10222000FC4F118210821282F3CF0F931F93CF9332
:10223000DF938C01FC01848195810196817099273F
:1022400095838483C0E0D5E580910301C81730F001
:10225000DF91CF911F910F910C94470E2091210295
:10226000422F4C0F5527551FCA019A01220F331FC9
:10227000280F391F265C3C4F8C2F8695F80144812E
:102280005581840F952F911D817040913803609185
:1022900037038D9F802D11240E94DC0DCF5FD4CF9A
:1022A0000F931F93CF93DF93EC0110E000E0909128
:1022B00003019017110609F06CF40E94470E8C81FF
:1022C00090E00196817099278C83DF91CF911F91C7
:1022D0000F91089520912102A801420F511D9A01EA
:1022E000220F331F240F351F265C3C4F4C81609119
:1022F00037038091360396959017110651F04CF0F4
:10230000442349F0409138030E94DC0D0F5F1F4FBA
:10231000CECF4423B9F340E0F7CFE5E3F3E080818B
:102320008E7F808360817181828193810E94FB0D09
:1023300010922B022FEF80E792E0215080409040D6
:10234000E1F700C000000C94470E609135036695DC
:1023500070E04BE050E086E091E00E946229892B1A
:1023600019F481E080932B020E9452229093240260
:102370008093230208959091350390FF35C09170AA
:10238000811128C0926090933503662351F06091CB
:1023900035037091360380913703909138030E9482
:1023A000FB0D60913503669570E04BE050E086E0F0
:1023B00091E00E946229892BA1F010922B0281E00A
:1023C0008093260240913803609137038091360351
:1023D0000C94E80F853210F09864D5CF880F982BB5
:1023E000D2CF0E94A511EBCF0895682F90913503AD
:1023F000969581E0890F853208F081E00C94BB113D
:1024000081E00C94F511682F9091350396958FEF2C
:10241000890F09F484E20C94BB1181E00C9403123F
:1024200061E00C94BB11E5E3F3E08081816080837F
:1024300086950C9410128091350380FD0C948D11BB
:102440000C94131260E00C94BB118091290281114D
:102450002EC00E94D220811104C00E9474210E94CB
:102460000D0E0E94F70D6093350370933603809331
:102470003703909338036E7F61F40E940D0E0E9423
:10248000F70D609335037093360380933703909371
:1024900038030E94E10D10922B028091350380FFDA
:1024A00003C086950E94221281E08093290208953C
:1024B0000F931F93CF93DF9380912B02882309F40E
:1024C0008DC080912A02E0913503E695E81BE093E8
:1024D00025028230C9F5F0E0E658F84FE491CE2F9E
:1024E000D0E00DE91EE080912602882389F0109249
:1024F00026020E9452229E0120953095820F931F42
:1025000090932402809323021092280210922702B3
:1025100080912302909124020E945E228C179D07D5
:1025200008F45CC0E0912302F0912402CE0FDF1F7B
:10253000D0932402C093230283E292E0F801DF915A
:10254000CF911F910F910994863049F4F0E0E9583A
:10255000F84FE491CE2FD0E001EB1EE0C4CF8930DC
:1025600051F4E695F0E0EC58F84FE491CE2FD0E02E
:102570000BEE1FE0B8CF8F3051F4E695F0E0EF5846
:10258000F84FE491CE2FD0E008E210E1ACCF8531D6
:1025900049F4F0E0E259F84FE491CE2FD0E002EA9E
:1025A00010E1A1CFC8EED3E005E111E1883109F4D3
:1025B0009ACF833239F4ECE6F7E0C591D49101EC7F
:1025C0001EE091CFC4EFD1E000E511E1843209F4BF
:1025D0008ACFC0EDD7E00DEC1DE085CFDF91CF9124
:1025E0001F910F910895FA01811101C0FB01099417
:1025F000CF93DF93C82FD62F0E941D0E8C1740F06B
:102600000E941D0E8D1720F4DF91CF910C940012C3
:102610008C2FDF91CF910C9410120F931F93CF93B7
:102620008C01FB01C281CC2309F465C00E942320E8
:102630008272F801E25CFC45E431F10538F4EB53B9
:10264000F34D0C9450290E941B12C0E08C2FCF91A7
:102650001F910F9108954DE052E160E072E10E94F8
:10266000F312F3CF40E052E16DE072E1F8CF49EAB6
:102670005FE06CE97FE0F3CF4CE95FE069EA7FE07F
:10268000EECF47EC5FE068EB7FE0E9CF48EB5FE03F
:1026900067EC7FE0E4CF45EE5FE066ED7FE0DFCF03
:1026A00046ED5FE065EE7FE0DACF46E35EE065E2AF
:1026B0007EE0D5CF45E25EE066E37EE0D0CF81E00C
:1026C0000E941012C2CF65E082E00E94F812BDCFD6
:1026D00068E086E0FACF6EE089E0F7CF64E18FE052
:1026E000F4CF67E185E1F1CF88E1EACF62E289E1E9
:1026F000ECCF83E2E5CFC1E0A9CF2AB1342F3F7000
:10270000A1E0B0E001C0AA0F3A95EAF72A2B2AB956
:1027100042954F70E42FF0E022A14A2F40954223CA
:1027200032A1A32B5FB7F8949B01220F331F260F12
:10273000371F280F391F2817390741F45FBF87EC6F
:1027400090E00197F1F700C000000895FC0161914D
:10275000CF0178E0ABB9000000C067FF4BB9660F4E
:10276000000000C000C000C04BB900C07A9591F7CE
:10277000E2CF43E90C947D130F931F93CF93DF9324
:10278000C62FD42F022FFC0182818823C9F06093C9
:102790002E020E94522290932D0280932C0280E2FE
:1027A0008C0F883008F050C0C77081E001C0880FDE
:1027B000CA95EAF7DF91CF911F910F910C946A1897
:1027C00010912E02161335C080912C0290912D028B
:1027D0000E945E22883C910560F5C0E2CD0F1D1776
:1027E000B9F080E2810F883040F4177081E001C0B9
:1027F000880F1A95EAF70E947118C83048F481E0F2
:102800009D2F977001C0880F9A95EAF70E946A1869
:10281000802F0E945718C830B8F4D77081E001C0EB
:10282000880FDA95EAF7DF91CF911F910F910C9401
:10283000711880E28C0F883038F4C77081E001C0D5
:10284000880FCA95EAF7EFCFDF91CF911F910F91D3
:1028500008959C01CB01233F4CE5340731F190F4FE
:10286000283DFCE53F07E9F0293D4CE5340769F1D7
:10287000273D3C4579F426E241EE61EE0E94BC130F
:1028800080E00895253FFCE53F07B9F090F0263F32
:102890003C45B9F0FC0182818823D1F010922E02D0
:1028A000089527E245EE65EEE9CF26E241EE60EEBF
:1028B000E5CF27E245EE64EEE1CF26E241EE62EE9F
:1028C000DDCF27E245EE66EED9CF28E241E0EBCF3F
:1028D00081E00895CF93DF93EC01FB01828188238F
:1028E00009F419C1C230FCE5DF07C0F1C6319CE52F
:1028F000D90730F09E012A5F3C452930310570F53B
:102900000E94EA209093640380936303C031ECE556
:10291000DE0709F4CFC008F05BC0C8308CE5D807EB
:1029200009F4B6C088F5C430ECE5DE0709F4A8C0A8
:10293000C0F4C2308CE5D80709F49CC080916303D1
:102940008260C330DC4509F498C0809163039091A4
:1029500064030E94F8200E94A31A80E0DF91CF91C7
:102960000895809163038061C630ECE5DE0709F4C9
:1029700084C0809163038860C730DC4508F47DC063
:1029800080916303806279C0CC308CE5D80709F46C
:1029900089C070F4809163038C60CA30ECE5DE0777
:1029A00009F46BC008F478C0809163038E7F65C022
:1029B000CE308CE5D80709F479C0809163038B7F12
:1029C000CF30DC4508F459C0809163038F7E55C039
:1029D000CB3FECE5DE0709F457C030F5C3318CE599
:1029E000D80709F46FC078F4C131ECE5DE0709F4CB
:1029F00065C0C231DC4509F0A8CF0E94A31A8091BE
:102A000063038F773AC0C5318CE5D80709F462C0FB
:102A100008F476C0809164038160CA3FDC4509F008
:102A200094CF8093640391CFCF3FFCE5DF0709F497
:102A30004DC088F4809164038D7FCD3F9CE5D9071C
:102A400081F3809164038E7FCE3FDC4550F380910B
:102A500064038360E6CFC130FDE5DF0709F459C0A8
:102A600008F444C080E0C230DD4509F06ECF0E941A
:102A700076216BCF8091630381608093630365CF80
:102A8000809163038460F9CF809164038260C9CF31
:102A9000809163038064F1CF0E94A31A8091630345
:102AA0008068EBCF809163038D7FE7CF80916303D4
:102AB000877FE3CF809163038F7DDFCF80916303B6
:102AC0008F7BDBCF80916303837FD7CF80916403BB
:102AD0008C7FA7CF8091630382FB992790F921E037
:102AE000922790FB82F990FB83F9C7CF8091640312
:102AF000982F909591708E7F892B90FB81F991CFC3
:102B00000E94A31A90916303892F97FB87F980583D
:102B1000B4CF81E0ACCF81E021CFCF93DF93EB0145
:102B200086319C4511F50E9423209A81992399F0C2
:102B30008A7A91E009F490E090932F02811109C004
:102B400089E20E94FE1F0E946F2080E0DF91CF91FA
:102B5000089585E3F6CF80912F02811104C089E2A8
:102B60000E940520F0CF85E3FBCF81E0EFCF83E328
:102B700090E02091BC0027FD02C00197D1F7089595
:102B80001092B9008CE08093B8000895CF93C82FBD
:102B900084EA8093BC000E94B7158091B900887FB9
:102BA000883041F08091B900887F803119F081E050
:102BB000CF910895C093BB0084E88093BC000E942D
:102BC000B7158091B900887F883129F08091B900CC
:102BD000887F803461F780E0EBCF84E98093BC008C
:102BE00083E390E02091BC0024FD02C00197D1F75F
:102BF00008958093BB0084E88093BC000E94B715C1
:102C00009091B900987F81E0983209F480E00895AE
:102C10001F921FB61F9211248F939F93EF93FF93E0
:102C20008091B900887F8038C1F038F4882309F496
:102C30004BC0803679F081E022C0883A11F0883BA1
:102C4000D1F7E0913102F0E0E15BFC4F80818093AD
:102C5000BB0031C010923002EECF80913002811162
:102C600022C08091BB00809331028091310280317B
:102C7000C0F01092310280E091E090933002909188
:102C8000BC008295880F880F807C892B8568809393
:102C9000BC00FF91EF919F918F911F901FBE1F90DD
:102CA000189581E0E9CFE0913102F0E08091BB001E
:102CB000E15BFC4F80838091310290E001968F7040
:102CC000992780933102B7CF1092BC00B4CF909374
:102CD0003702809336020895E0913602F091370270
:102CE000309721F00190F081E02D099480E0089563
:102CF000E0913602F0913702309721F00280F381A3
:102D0000E02D09940895209134023091350228175E
:102D1000390771F09093350280933402E0913602C6
:102D2000F0913702309721F00680F781E02D099469
:102D3000089520913202309133022817390771F03B
:102D40009093330280933202E0913602F091370281
:102D5000309721F00084F185E02D0994089585B71E
:102D6000806885BF85B7806885BF089508950895F8
:102D70000C94B61608950C94BA160E94AF160E94D1
:102D8000B7160C94B81681E008950E9449220E945B
:102D9000310C0E94B5220E9425120C94BB16AF92F2
:102DA000BF92CF92DF92EF92FF920F931F93CF9338
:102DB000DF93CDB7DEB72A970FB6F894DEBF0FBE0C
:102DC000CDBF0E94770C0E94C316882309F45FC010
:102DD00089E3A82E82E0B82E10E000E0C02E802FFC
:102DE0000E94260CE82EF501D1905F01D81609F457
:102DF00048C08091AB0281FD0E942C0C80E0FF2432
:102E0000F394DE249D2D9F21B9F18E83CF82EF2094
:102E100081E009F480E088870E9452228160782F47
:102E20009A8789874E815F8168858A850E946917A4
:102E3000F801E75CFD4F8081F826F0820E9458126D
:102E40000E946C1690913802891791F10E946C16BD
:102E5000809338022A960FB6F894DEBF0FBECDBF1E
:102E6000DF91CF911F910F91FF90EF90DF90CF9066
:102E7000BF90AF900C94DA098F5FFF0C883009F097
:102E8000C1CF0F5F1F4F0630110509F0A7CF8FEF9D
:102E900089838A831B820E9452228160782F9D83BE
:102EA0008C8349815A816B818D810E946917C6CFBD
:102EB0002A960FB6F894DEBF0FBECDBFDF91CF913B
:102EC0001F910F91FF90EF90DF90CF90BF90AF9048
:102ED0000895CF93DF93CDB7DEB72B970FB6F89455
:102EE000DEBF0FBECDBF4F83588769877A878B8738
:102EF0001E821D8285E0FE013796DE01119601904B
:102F00000D928A95E1F749815A816B817C818D818F
:102F10009E812B960FB6F894DEBF0FBECDBFDF911A
:102F2000CF910C94191DFC01808191810C94D01FCC
:102F3000CF93C82F882309F469C08238C1F40E9456
:102F40006C1681FD63C089E30E94FE1F0E946F2002
:102F50002FEF81EE94E0215080409040E1F700C0D7
:102F6000000089E30E940520CF910C946F208338E4
:102F7000A1F40E946C1680FD49C083E50E94FE1FEB
:102F80000E946F202FEF81EE94E02150804090400E
:102F9000E1F700C0000083E5E5CF8438A1F40E948A
:102FA0006C1682FD33C087E40E94FE1F0E946F20D2
:102FB0002FEF81EE94E0215080409040E1F700C077
:102FC000000087E4CFCF8CEF8C0F813A90F46C2F08
:102FD00080911101909112010E948D21882329F086
:102FE0008C2F0E9405200E946F208C2F0E94FE1FB4
:102FF000BBCF80E28C0F883048F4C77081E001C0FD
:10300000880FCA95EAF70E942620AECFCF91089587
:10301000882309F44BC0823871F40E946C1681FF3A
:1030200045C089E30E94FE1F0E946F2089E30E9431
:1030300005200C946F20833859F40E946C1680FF91
:1030400035C083E50E94FE1F0E946F2083E5EFCF0D
:10305000843859F40E946C1682FF28C087E40E94CD
:10306000FE1F0E946F2087E4E2CF9CEF980F913AF9
:10307000F0F290E2980F983050F4877091E001C020
:10308000990F8A95EAF7892F0E942C20D2CF9BE5D1
:10309000980F933020F490E080E00C948316885AC7
:1030A000873120F490E080E00C9499160895CF9336
:1030B000C82F0E949817C93349F42FEF87EE93E089
:1030C000215080409040E1F700C000008C2FCF914C
:1030D0000C940818882321F00E9426200C946F205D
:1030E0000895882321F00E942C200C946F200895CD
:1030F000BF92CF92DF92EF92FF920F931F93CF93E5
:10310000DF936C01D62FC72FFC01158112951F701C
:10311000028101110E9443200E941C20E82E882376
:1031200071F00023B1F080E28D0F883090F082E0E2
:103130000E94BA200E941C2091E0E82EE926BC2EB5
:10314000B2949FE0B922EB2DF0E0E752F34D0C94DE
:103150005029E12CF4CF1C2F1F70C07F11F0129565
:10316000107F0023A9F0112359F080E28D0F8830E1
:1031700010F0D11109C0812F0E9426200E946F20DB
:103180008D2F0E94981714C0812F0E943620F6CFF1
:103190008D2F0E940818112359F080E28D0F88307E
:1031A00010F0D1112CC0812F0E942C200E946F2082
:1031B0002B2D2850330B2430310520F40E946C163F
:1031C0000E94DA09EE2009F477C10E94182080FDE0
:1031D00073C1F60112820E9412200E949D1EC60138
:1031E0000E947D1A0E941220DF91CF911F910F91B2
:1031F000FF90EF90DF90CF90BF900C94BE1E812F78
:103200000E943C20D3CFFC2FFF70FF2EC07FC03226
:1032100019F0F29480EFF822DD2369F0D13049F102
:10322000002391F1112351F1F601858180FFA8CF90
:103230008F70858323C0002381F0111106C00E9486
:1032400056208F290E946A18B3CF1130C1F70E940F
:1032500056208F290E945C20ABCF111106C00E941E
:1032600065208F2D0E947118A3CF113009F4A0CFD3
:10327000F6CF002329F0163008F09ACF8F2DE2CF39
:10328000153008F095CFEDCF112359F3D93349F418
:10329000FFEF27EE33E0F15020403040E1F700C06F
:1032A00000008D2F0E94081883CF8C2F837009F0A7
:1032B00041C001117DCF4D2F429546954770440F77
:1032C000440F0D2F0F7010E030E020E0042E04C0FA
:1032D000000F111F221F331F0A94D2F760E070E025
:1032E000CB01D4FF0FC06FE070E080E090E004C03D
:1032F000660F771F881F991F4A95D2F760957095C2
:1033000080959095C695C695C370602B712B822BC6
:10331000932BC23049F058F4C13019F00E944F1E6F
:1033200047CF0E943D1E44CF0E94611E41CF0E94A4
:103330003B1E3ECF8695002311F08C2F8170882391
:1033400009F436CF4D2F429546954770440F440FF0
:103350000D2F0F7010E030E020E0042E04C0000FAD
:10336000111F221F331F0A94D2F760E070E0CB01D7
:10337000D4FF0FC06FE070E080E090E004C0660F03
:10338000771F881F991F4A95D2F760957095809591
:103390009095C695C695C370602B712B822B932B8D
:1033A000C23049F058F4C13019F00E94141F00CF08
:1033B0000E94021FFDCE0E94261FFACE0E94771E99
:1033C000F7CECF70002329F08C2F0E949D1E8D2FE9
:1033D00039CF8D2F0E9471188C2F0E94BE1EE8CE0F
:1033E000D23F89F160F4D03FC9F0D13F29F10023E9
:1033F00009F442C01111C4CE8C2F8F7121C0D33F6C
:1034000039F1D43FA1F7002369F1CF718C2F0E94CD
:103410009D1E63E08C2F0E94A520CACE002341F0A0
:10342000153008F0C5CE8C2F8F710E94E11EC0CEE2
:10343000163008F0BDCEF7CF8C2F8F71002369F2C4
:103440000E949D1EB5CE8C2F8F710023C9F3C5CF6E
:10345000002329F08C2F8F710E94881EA9CE0E9414
:10346000831EA6CE81E00E94BA20123008F4A0CEBE
:1034700082E00E94BA209CCE112359F0D93309F082
:1034800010CF8FEF97EEE3E081509040E040E1F7FE
:1034900006CF8C2F8F71A1CF4C2F4F706D2FC6018F
:1034A0000E94340A0E94B31D83CE4C2F4F706D2FA3
:1034B000C6010E94370A7CCEDF91CF911F910F91F8
:1034C000FF90EF90DF90CF90BF9008950F931F93E0
:1034D000CF93DF93EC01688179818A810E94DA1FA2
:1034E0008C010E94381F0E943A1EB801CE01DF9164
:1034F000CF911F910F910C947818CF93DF93EC012B
:103500008B819C81892B29F08881998189238F3F28
:1035100019F4DF91CF910895CE010E94F20988231A
:10352000C1F3CE010E94661ACE01DF91CF910C94B7
:10353000BF090E9443200E9453200C946F200E94D8
:103540000C200C94991A0E9433200C949F1AE92F96
:10355000E295EF70E250EE3070F4F0E0E751F34D99
:103560000C945029803F19F020F4883E20F481E02B
:103570000895843FE1F380E00895883EC0F3813FE1
:10358000D1F7F5CF93FB882780F908950E94D01FCB
:103590000C94A71ACF93DF9300D000D00F92CDB731
:1035A000DEB70F900F900F900F900F90DF91CF919B
:1035B0000895CF93DF9300D000D000D0CDB7DEB711
:1035C00026960FB6F894DEBF0FBECDBFDF91CF9128
:1035D00008951F93CF93DF93C091400216E080912E
:1035E00041028C1304C0DF91CF911F910895D0E068
:1035F0001C9FF0011D9FF00D1124EE5BFD4F4081DB
:10360000518162817381848195810E94D91A2196AA
:10361000C770E5CF409172025091730260917402BD
:103620007091750280917602909177020C94D91A6C
:103630001F93CF93DF9380917702807FA9F48091CD
:103640007402882389F080914002C0914102609108
:10365000720270917302A0917502B0917602D62F1A
:10366000D72316E0C81304C0DF91CF911F910895AE
:1036700090E0109711F0DF3F19F401968770F2CFB8
:10368000189F9001199F300D1124F901EE5BFD4F39
:1036900041814713F2CF40814613EFCF4281411160
:1036A000ECCF438154814A1B5B0B483C510528F702
:1036B000809177028F70806180937702F901E95BD6
:1036C000FD4F80818F708061808382E792E00E944D
:1036D0007D1ADF91CF911F910C94E91AAF92BF929E
:1036E000CF92DF92EF92FF920F931F93CF93DF93CE
:1036F000CDB7DEB761970FB6F894DEBF0FBECDBF72
:103700008C0185E0F801DE011D9601900D928A95ED
:10371000E1F7F80140815181E28082E7C82E82E022
:10372000D82E60917502709176026115710509F4C9
:1037300061C19091720220917302892F82238F3F81
:1037400009F458C1A380B480F0907402F501E61B1F
:10375000F70BFF2009F4FCC080917702382F307FEF
:10376000E83CF10508F0B2C0311179C0FE2C2513F8
:1037700023C0941321C0E1101FC08F70806180931B
:1037800077020E940A1BC6010E947D1A809177026F
:10379000F80185838F2D61960FB6F894DEBF0FBEBA
:1037A000CDBFDF91CF911F910F91FF90EF90DF90F0
:1037B000CF90BF90AF900895AB2829F0842F852338
:1037C0008F3F09F033C180E0F82FF170DF2E80FFCA
:1037D0003CC0809140022091410236E0821315C026
:1037E0004D875E878D859E850E94D01F292F22954B
:1037F0002F702230F0F0243018F59F70F1F0F801AE
:103800009581907FD1F4D12C1EC090E0389FF001BB
:10381000399FF00D1124EE5BFD4F6181651306C0E9
:103820006081641303C062816E110FC001968770BE
:10383000D5CF9F7011F0882331F3805E883018F364
:10384000C8010E947D1AFD2CA5CFEE2009F4A2CF5D
:1038500080917702816080937702F12C9BCF2513B2
:1038600006C0941304C0F801EE2009F48DC04D8702
:103870005E878D859E850E94C61A882319F1EE20E9
:1038800009F180917702803270F0209172023091BC
:10389000730238872F831986BB86AA868C87CE0150
:1038A00007960E947D1A86E0F801A2E7B2E0019037
:1038B0000D928A95E1F70E94181B0E940A1BFF24B3
:1038C000F39468CFC8010E947D1AF9CF311113C05B
:1038D0007A2DB98AA88A6E2D89890E94CA1A82E730
:1038E00092E00E947D1A86E0F60111928A95E9F72E
:1038F0000E940A1BB2CF25130FC094130DC0E11014
:103900000BC0F8018583C8010E947D1A86E0F6018C
:1039100011928A95E9F73ECF4D875E878D859E850A
:103920000E94C61A882371F2EE2061F2809177021C
:10393000803208F4B8CF20917202309173023A833A
:1039400029831B82BD82AC828E83CE010196A9CFD2
:10395000E83CF10508F041C0FE2CEE2009F4B2CF9E
:1039600025132AC0941328C08091770280FD1BC0C4
:10397000982F907FC1F0F8018583903F31F0982F08
:10398000907F905F8F70892B8583C8010E947D1A7C
:1039900086E0F801A2E7B2E001900D928A95E1F786
:1039A0000E940A1BF7CE86E0F801A2E7B2E0019080
:1039B0000D928A95E1F7EECE4D875E878D859E85C7
:1039C0000E94C61A81116FCF809177028160809327
:1039D0007702C8010E947D1ADDCE7A2DB98AA88AA5
:1039E0006E2D89890E94CA1A86E0F60111928A9585
:1039F000E9F7D6CFEE2009F465CF4D875E878D8538
:103A00009E850E94C61AF82E882309F45BCF86E0B3
:103A1000F801A2E7B2E001900D928A95E1F782E702
:103A200092E00E9493170E94181BBACF81E08E2566
:103A3000CBCE1F93CF93DF93CDB7DEB72C970FB6C6
:103A4000F894DEBF0FBECDBF4F83588769877A8752
:103A50008B879C87CE0107960E946E1B882369F096
:103A60008A859B85892B39F04F815885842F852342
:103A70008F3F09F071C016E05FC086E0FE01379607
:103A8000DE01119601900D928A95E1F78A859B855A
:103A9000892B89F388859F8189238F3F61F320914A
:103AA000410230E0C9010196877099274091400298
:103AB0004817190671F40E94A31A1092410210923D
:103AC000400286E0E2E7F2E0DF011D928A95E9F725
:103AD000D2CF96E0929FD001939FB00D1124AE5BA0
:103AE000BD4FFE01319601900D929A95E1F78093BA
:103AF00041020E94E91ABFCF819FC00111248E5B51
:103B00009D4F0E946E1B8823E9F0E09140021E9FAA
:103B1000F0011124EE5BFD4F408151816281738180
:103B2000848195810E94D91A8091400290E001968B
:103B300087709927809340028091400290914102C2
:103B40008913DACF2C960FB6F894DEBF0FBECDBF27
:103B5000DF91CF911F91089569857A858B859C852A
:103B60000E94D91A88CFEF92FF920F931F93CF93A1
:103B7000DF938C01892B81F0F12CEE24E394E80192
:103B80002196F8018491843770F4843008F05FC086
:103B90008130B1F08230A1F1DF91CF911F910F916F
:103BA000FF90EF900895853709F44CC008F43DC0AC
:103BB0009CE7980F903780F78F770E94081849C0CC
:103BC0000E5F1F4FFE01849190E2980F983060F4D1
:103BD0008770FE2D01C0FF0F8A95EAF78F2F0E9494
:103BE00046200E946F2002C00E9498178F2D81509E
:103BF00030F2EFE9FFE03197F1F700C00000F7CFB6
:103C00000E5F1F4FFE01849190E2980F983050F4A0
:103C10008770FE2D01C0FF0F8A95EAF78F2F0E9453
:103C20004C20DFCF0E940818E1CF0E5F1F4FFE012E
:103C3000C491C150D8F28FE99FE00197F1F700C01D
:103C40000000F7CF0E5F1F4FFE01F490CFCF0E9410
:103C500098178E01CBCF08950C942B1E0E942C1E1A
:103C600060939A0270939B0280939C0290939D02B2
:103C70000C94991A08950C942E1E0F931F93009183
:103C80009A0210919B0220919C0230919D02602B20
:103C9000712B822B932B1F910F910C942E1E0F933F
:103CA0001F9300919A0210919B0220919C023091E7
:103CB0009D0260237123822393231F910F910C9403
:103CC0002E1E0F931F9300919A0210919B02209138
:103CD0009C0230919D0260277127822793271F91B4
:103CE0000F910C942E1E0C942B1E0C94731E0E948C
:103CF000751E60939602709397028093980290933A
:103D000099020C94991A60E070E0CB010C94771E34
:103D10000F931F9341E050E060E070E08A019B0147
:103D200004C0000F111F221F331F8A95D2F7C9014B
:103D3000B8011F910F910C94771E0F931F9341E0D0
:103D400050E060E070E004C0440F551F661F771F0D
:103D50008A95D2F78091960290919702A09198024D
:103D6000B09199028A019B01082B192B2A2B3B2B1E
:103D7000C901B8011F910F910C94771E0F931F93E7
:103D800041E050E060E070E004C0440F551F661F42
:103D9000771F8A95D2F7CB01BA016095709580950F
:103DA000909500919602109197022091980230917F
:103DB000990260237123822393231F910F910C9406
:103DC000771E0F931F9341E050E060E070E004C065
:103DD000440F551F661F771F8A95D2F78091960270
:103DE00090919702A0919802B09199028A019B014B
:103DF000082719272A273B27C901B8011F910F91CE
:103E00000C94771E0F931F930091960210919702C6
:103E10002091980230919902602B712B822B932B69
:103E20001F910F910C94771E0F931F930091960290
:103E3000109197022091980230919902602371238A
:103E4000822393231F910F910C94771E0F931F933E
:103E50000091960210919702209198023091990258
:103E600060277127822793271F910F910C94771E4B
:103E70000895990F990F990F890F982F977041E026
:103E800001C0440F9A95EAF786958695869595E048
:103E9000899FF0011124E858FD4F30E020E070E0E8
:103EA0005191DF011197CB01022E02C096958795A3
:103EB0000A94E2F7817081958527842385278C9366
:103EC0002F5F3F4F2530310559F70895990F990F0E
:103ED000990F890F982F977086958695869525E07E
:103EE000829FF0011124E858FD4F50E040E080E04F
:103EF000219130E0092E02C0369527950A94E2F709
:103F000021703327042E01C0220F0A94EAF7822B76
:103F10004F5F5F4F4530510559F70895BF92CF92DB
:103F2000DF92EF92FF920F931F93CF93DF938C0159
:103F3000C0909602D0909702E0909802F09099027B
:103F400080919A0290919B02A0919C02B0919D0257
:103F5000C82AD92AEA2AFB2ACFE1D0E0BC2ED70111
:103F6000C6010C2E04C0B695A795979587950A941F
:103F7000D2F780FD0EC0219788F7B12C8B2DDF91F1
:103F8000CF911F910F91FF90EF90DF90CF90BF9056
:103F90000895B8018C2F0E94550A019761F3EECF66
:103FA000CF93DF93EC010E948E1FBE01DF91CF9172
:103FB0000C94550A1F93CF93DF93EB0190913F022E
:103FC000992331F0CB01DF91CF911F910C94D01F39
:103FD000882379F0CB010E948E1F182F682FCE0105
:103FE0000E94391FBE01812FDF91CF911F910C9448
:103FF000550ACB010E94661F182FF4CF682F8091BD
:104000001101909112010C94C321682F809111012C
:10401000909112010C94C52180911101909112018F
:104020000C94C72180919E0285958595859508956C
:1040300080919E028770089590919E02977081E012
:1040400009F480E008958091AA0208959091AA024F
:10405000892B8093AA02089580959091AA029823B3
:104060009093AA0208951092AA0208959091A9022D
:10407000892B8093A902089580959091A902982395
:104080009093A90208951092A90208959091A80210
:10409000892B8093A802089580959091A802982377
:1040A0009093A80208951092A802089580919F020B
:1040B000089508950C94592090919F02981721F02B
:1040C00080939F020C945A20089580919F02882328
:1040D00029F010929F0280E00C945A200895E091FC
:1040E0001101F09112018091AA028083E0911101E7
:1040F000F091120180819091A902892B8083E09137
:104100001101F091120180819091A802892B808386
:1041100090919F02992381F0E0911101F091120199
:104120008081892B808380911101909112010E94DE
:104130007B2181110E9465208091110190911201D3
:104140000C94781608950C94A22098E0899F900111
:104150001124622B60939E020E949D1E80919E02FC
:104160008595859585950C94A32010929E0280E0FC
:104170000C94A32090919E028095892380939E02A7
:10418000282F277071F4282F082E000C330B92175C
:10419000130639F08595859585950E94BE1E0C9471
:1041A000B520089590E080E00E94522C21E08C3EE2
:1041B0009E4F09F020E0822F089582E090E00C9459
:1041C000442C83E090E00C94442C682F83E090E032
:1041D0000C94582CCF9384E090E00E94442CC82F7C
:1041E00081E290E00E94442C982F8C2FCF9108956B
:1041F000CF93C92F682F84E090E00E94582C6C2F39
:1042000081E290E0CF910C94582CAB01BC018FE07F
:1042100090E00C946A2CAB01BC0183E190E00C941B
:104220006A2C60E070E0CB010C940B2160E070E040
:10423000CB010E9405210C9411216CEE7EEF90E0E1
:1042400080E00E94762C60E082E090E00E94582C92
:1042500060E083E090E00E94582C10929A02109245
:104260009B0210929C0210929D0260E084E090E01C
:104270000E94582C60E081E290E00E94582C60E09F
:1042800085E090E00E94582C60E086E090E00E947B
:10429000582C6FEF87E090E00E94582C40E050E0EF
:1042A000BA0188E090E00E946A2C60E08DE090E026
:1042B0000E94582C40E050E0BA0188E190E00E9452
:1042C0006A2C60E087E190E00E94582C40E050E0CA
:1042D000BA018CE190E00E946A2C60E080E290E0FC
:1042E0000E94582C0C9416210C941D21682F8EE0EE
:1042F00090E00C94582C9C012E5F3F4FAC01485F1E
:104300005F4F80E02417350709F40895F901919172
:104310009F019923B9F38F5FF5CF662349F0FC0124
:10432000329608962191261729F0E817F907D1F758
:1043300080E0089581E008959C01FC0132969FEF92
:1043400080E04191461751F09F3F19F4411101C09F
:10435000982F8F5F8630A9F79F3F09F40895290FA2
:10436000311D97FD3A95F90162830895FC0132965B
:1043700008962191261303C0DF0111971C92E817BC
:10438000F907B9F708950C949C210C94B621029674
:1043900026E0FC0111922A95E9F708950895089501
:1043A0000C94CF210E94D02180916903843049F17F
:1043B0001092AC0288E190E020E40FB6F894A89542
:1043C000809360000FBE2093600080E00E94DA09B5
:1043D0000E94D02183B7817F846083BF83B78160CF
:1043E00083BF7894889583B78E7F83BF0FB6F89488
:1043F000A8958091600088618093600010926000B1
:104400000FBE08950895CF930E94CE210E94770C8D
:104410000E940222C0E08C2F0E94260C811105C050
:10442000CF5FC630C1F7CF91089581E0FCCF0895EA
:104430000C9417220E94A31A0E946C160E94DA099B
:104440000C9418221F921FB61F9211248F939F93D2
:10445000AF93BF938091AC02811113C080915F0331
:1044600090916003A0916103B09162034196A11DF8
:10447000B11D80935F0390936003A0936103B09399
:104480006203BF91AF919F918F911F901FBE1F90AC
:10449000189582E084BD93E095BD9AEF97BD809317
:1044A0006E0008952FB7F89480915F039091600398
:1044B000A0916103B09162032FBF08959C014FB793
:1044C000F89480915F0390916003A0916103B09193
:1044D00062034FBF821B930B089578941F921FB6FF
:1044E0001F9211248F939F93AF93BF9380915F038B
:1044F00090916003A0916103B09162030196A11DA8
:10450000B11D80935F0390936003A0936103B09308
:104510006203BF91AF919F918F911F901FBE1F901B
:10452000189581E08093E00080E28093D80010929B
:10453000C9008FE19EE40197F1F700C0000087E019
:1045400090EBDC018093720390937303A093740348
:10455000B093750388E19CE00FB6F894A89580931A
:1045600060000FBE90936000FFCF0E94D2208111A7
:1045700002C00E9474210E94DD208093AB020E9441
:10458000EA2090936403809363030E94E120682FE4
:1045900070E090E080E00C943B1E8091B50208959D
:1045A00008950895CF93DF93EC010E946C2482302C
:1045B00011F0843039F581E08093E9008FEF90911C
:1045C000E800815095FD06C095ED9A95F1F7000041
:1045D0008111F5CF8091E80085FF14C050E040E0E4
:1045E00068E070E0CE010E9489248091E8008E7717
:1045F0008093E80088E0FE01ADEAB2E001900D9200
:104600008A95E1F7DF91CF9108950895809168032D
:10461000811109C00E9419260E9476268091E2002D
:1046200084608093E20008951092680308950895CD
:1046300008950C941A2242E061EC81E00C949525D7
:1046400080916B03833009F45FC030F48130C1F195
:10465000823009F49BC008958A3009F487C08B30FA
:1046600009F46DC0893009F04EC080916A0381322F
:1046700009F049C080916E0390916F03892B09F076
:1046800042C08091E800877F8093E8008091E80035
:1046900082FF35C09091F3008091F200029729F4D7
:1046A0008091F1008B7F813021F48091F100809323
:1046B000B5028091E8008B778093E8000C94C925BF
:1046C00080916A03813AF9F48091E800877F8093B2
:1046D000E80080916E0390916F03892B61F468E08C
:1046E0008DEA92E070E00E94D8248091E8008B77F8
:1046F0008093E800089560E090E080E0F3CF80913F
:1047000069038111C3CF089580916A03813AD9F773
:1047100080916E0390916F03892BA9F78091E80037
:10472000877F8093E8008091E80080FFFCCF809134
:104730001D018093F1008091E8008E77BDCF8091BC
:104740006A03813201F780916E0390916F03892B88
:10475000D1F68091E800877F8093E8000E94C92508
:1047600080916C0380931D010C94A31A80916A03BD
:10477000813249F68091E800877F8093E8000E94AB
:10478000C92580916D038093B602089580916A03D4
:10479000813A09F0B8CF8091E800877F8093E800E4
:1047A0008091E80080FFFCCF8091B602C2CF84B731
:1047B000877F84BF0FB6F894A895809160008861C8
:1047C00080936000109260000FBE80E890E00FB60A
:1047D000F89480936100909361000FBE0E94BD1613
:1047E0000E9419260E9476268091E20084608093C0
:1047F000E20078940E94FF280E94C51683E191E0B0
:104800000E94671680916903853019F00E94CF16C7
:10481000F9CF0E94D22180916703882399F30E94E7
:104820000322882379F30E947324ECCF0C9418247C
:10483000292F332723303105C9F058F421303105B1
:10484000C9F122303105D9F190E080E030E020E07C
:1048500020C02132310539F122323105A9F780E437
:1048600090E029EE39E0672B79F713C09927813062
:10487000910599F0009741F08230910589F00397F6
:1048800019F7E3E8F9E002C0E1EBF9E0849190E088
:104890009F01FA01318320830895E9E9F9E0F6CF19
:1048A000E9E8F9E0F3CF89E090E027EC39E0672B05
:1048B00059F6EFCF82E190E027ED39E0EACF82E2CE
:1048C00090E025EB39E0E5CF80916903843011F465
:1048D00082E0089581E008958091B702811102C0BD
:1048E0000C946424089580E189BD82E189BD09B4F6
:1048F00000FEFDCF8091D8008F7D8093D8008091FD
:10490000E00082608093E0008091E00081FDFCCFB8
:104910000895AF92BF92CF92DF92FF920F931F93B1
:10492000CF93DF936C01EB018A010E94E825F82EFA
:10493000811123C00115110539F0F80180819181A1
:10494000C81BD90BC80ED91EB12CA12C2097A9F0D9
:104950008091E80085FD22C08091E8008E778093E9
:10496000E80001151105A1F0F80180819181A80EE0
:10497000B91EB182A08285E0F82E8F2DDF91CF91F4
:104980001F910F91FF90DF90CF90BF90AF9008954F
:104990000E94E8258823D1F2F82EEFCFF60181910D
:1049A0006F018093F1002197FFEFAF1ABF0ACECFBE
:1049B000FC01809170039091710386179707A0F016
:1049C0006115710529F49091E8009E779093E800B5
:1049D00090E06115710551F4911108C08091E800D3
:1049E00082FF34C080E00895BC01F2CF809169035A
:1049F0008823C1F18530C1F18091E80083FD30C08A
:104A00008091E80082FDEACF8091E80080FFE1CF4D
:104A10008091F3002091F200382F6115710519F093
:104A20002830310558F091E02830310509F090E048
:104A30002091E8002E772093E800CBCF81918093DE
:104A4000F100615071092F5F3F4FE7CF80916903FB
:104A5000882341F0853041F08091E80083FFBECF8C
:104A600081E0089582E0089583E00895FC0180913B
:104A700070039091710386179707A0F06115710577
:104A800029F48091E8008E778093E80090E061152A
:104A9000710551F4911108C08091E80082FF35C082
:104AA00080E00895BC01F2CF809169038823C9F1A9
:104AB0008530C9F18091E80083FD31C08091E80024
:104AC00082FDEACF8091E80080FFE1CF8091F30082
:104AD0002091F200382F6115710519F02830310549
:104AE00058F091E02830310509F090E08091E8001D
:104AF0008E778093E800CBCF84918093F10031963C
:104B0000615071092F5F3F4FE6CF80916903882381
:104B100041F0853041F08091E80083FFBDCF81E016
:104B2000089582E0089583E00895982F973028F043
:104B30008F708093E90081E008959093E900242F1D
:104B4000762F50E0981731F07091EC002091ED0035
:104B50005091F00021FD02C09F5FE8CF3091EB0043
:104B60003E7F3093EB003091ED003D7F3093ED00C0
:104B70003091EB0031603093EB007093EC002093A8
:104B8000ED005093F0002091EE0027FDE5CF80E08E
:104B9000089580916A0387FF13C08091E80082FF27
:104BA00006C08091E8008B778093E80004C0809174
:104BB00069038111F2CF0895809169038823D9F3A5
:104BC0008091E80080FFF8CF8091E8008E77ECCFED
:104BD0002091E4003091E50095E6A9012091EC00D8
:104BE000822F817020FF06C08091E80080FF06C000
:104BF00080E008952091E80022FD1AC080916903A9
:104C0000882389F0853089F08091EB0085FD0FC005
:104C10002091E4003091E50042175307F9F29150DA
:104C2000E1F684E0089582E0089583E0089581E04C
:104C300008950E9487260E948F26E0EEF0E0808192
:104C400081608083E8EDF0E080818F77808319BCFC
:104C5000A7EDB0E08C918E7F8C9380818F7E8083D6
:104C60001092680308950F931F93CF93DF930E94D0
:104C700087260E948F26C8EDD0E088818F778883B1
:104C800088818068888388818F7D888319BC109291
:104C9000690310926503109267031092660300EE99
:104CA00010E0F80180818B7F808388818160888318
:104CB00042E060E080E00E949525E1EEF0E0808136
:104CC0008E7F8083E2EEF0E080818160808380814E
:104CD00088608083F80180818E7F808388818061F5
:104CE0008883DF91CF911F910F910895E8EDF0E057
:104CF00080818F7E8083E7EDF0E08081816080831A
:104D000084E082BF81E0809368030C943326E8ED51
:104D1000F0E080818E7F80831092E20008951092EF
:104D2000DA001092E10008951F920F920FB60F92D1
:104D300011242F933F934F935F936F937F938F93A0
:104D40009F93AF93BF93EF93FF938091E10082FF16
:104D50000BC08091E20082FF07C08091E1008B7F51
:104D60008093E1000E94FE288091DA0080FF19C044
:104D70008091D80080FF15C08091DA008E7F8093EB
:104D8000DA008091D90080FF96C080E189BD82E180
:104D900089BD09B400FEFDCF81E0809369030E94C4
:104DA00006238091E10080FF19C08091E20080FF1E
:104DB00015C08091E2008E7F8093E2008091E20036
:104DC00080618093E2008091D80080628093D80057
:104DD00019BC85E0809369030E9418238091E1004B
:104DE00084FF2BC08091E20084FF27C080E189BD51
:104DF00082E189BD89B5982F917080FFFBCF8091AA
:104E0000D8008F7D8093D8008091E1008F7E8093C1
:104E1000E1008091E2008F7E8093E2008091E200C9
:104E200081608093E20080916503882309F449C082
:104E300084E0809369030E9419238091E10083FF3D
:104E400029C08091E20083FF25C08091E100877F27
:104E50008093E10082E08093690310926503809162
:104E6000E1008E7F8093E1008091E2008E7F80934D
:104E7000E2008091E20080618093E20042E060E025
:104E800080E00E9495258091F00088608093F0007A
:104E90000E941723FF91EF91BF91AF919F918F9146
:104EA0007F916F915F914F913F912F910F900FBE26
:104EB0000F901F90189519BC109269030E9414233B
:104EC00070CF8091E30087FD93E090936903B3CFA7
:104ED0001F920F920FB60F9211242F933F934F936F
:104EE0005F936F937F938F939F93AF93BF93CF9372
:104EF000DF93EF93FF93D091E900DF708091EC0096
:104F0000C82FC17080FDC0E81092E9008091F000C8
:104F1000877F8093F00078940E94AC271092E9007C
:104F20008091F00088608093F000CD2BCF70C0930B
:104F3000E900FF91EF91DF91CF91BF91AF919F91E8
:104F40008F917F916F915F914F913F912F910F9032
:104F50000FBE0F901F9018951F93CF93DF93CDB77F
:104F6000DEB7AA970FB6F894DEBF0FBECDBF8AE6B4
:104F700093E02091F100FC012193CF01F3E082370F
:104F80009F07B9F70E9420238091E80083FF1EC18C
:104F900080916A0390916B039A3008F017C1E92F52
:104FA000F0E0E950F34D0C945029803899F08238A4
:104FB00009F00CC180916E038F70873008F006C134
:104FC0008093E9008091EB0085FB882780F910929F
:104FD000E90006C080916603909167039111826099
:104FE0009091E800977F9093E8008093F1001092F1
:104FF000F1008091E8008E77E5C0882309F4D3C0E2
:10500000823009F0E3C080916C038111D6C0809199
:105010006E038F702FEF280F263008F0D7C08093D3
:10502000E9002091EB0020FFC8C0933031F480915B
:10503000EB0080628093EB00C0C09091EB00906128
:105040009093EB0021E030E001C0220F8A95EAF74F
:105050002093EA001092EA008091EB008860EACF8A
:105060008111B4C010916C031F778091E3008078A8
:10507000812B8093E3008091E800877F8093E80094
:105080000E94C9258091E80080FFFCCF8091E30059
:1050900080688093E30082E0111183E080936903CC
:1050A00095C08058823008F091C080916C03909137
:1050B0006D038C3D23E09207A1F583E08A838AE2A9
:1050C00089834FB7F894DE01139620E03EE051E269
:1050D000E32FF0E050935700E49120FF03C0E295E6
:1050E000EF703F5FEF708E2F90E0EA30C0F0C79610
:1050F0008D939D932F5F243159F74FBF8091E80026
:10510000877F8093E8006AE270E0CE0101960E94FA
:10511000D8248091E8008B778093E80057C0C09630
:10512000E7CF60916E0370916F03AE014F5F5F4FE9
:105130000E941624BC01892B09F448C09091E80014
:10514000977F9093E80089819A810E943625E1CF6C
:105150008038E1F58091E800877F8093E8008091B6
:1051600065038093F10045CF811130C090916C03AD
:10517000923060F58091E800877F8093E8009093FB
:1051800065030E94C92580916503882311F084E09E
:1051900005C08091E30087FDFACF81E08093690329
:1051A0000E941B2313C080916C03813079F481E04D
:1051B000933009F080E0809367031092E9008091BA
:1051C000E800877F8093E8000E94C9258091E8006D
:1051D00083FF0AC08091E800877F8093E800809178
:1051E000EB0080628093EB00AA960FB6F894DEBFC6
:1051F0000FBECDBFDF91CF911F9108950895CF933A
:10520000809169038823A1F0C091E900CF7090914B
:10521000EC00892F817090FD80E8C82B1092E90086
:105220008091E80083FD0E94AC27CF70C093E90015
:10523000CF91089587FB082E062687FD819567FD8F
:1052400061950E9456290EF4919507FC8195089569
:10525000AA1BBB1B51E107C0AA1FBB1FA617B7079C
:1052600010F0A61BB70B881F991F5A95A9F78095B8
:105270009095BC01CD01089597FB072E16F400947C
:1052800007D077FD09D00E94282907FC05D03EF4FD
:10529000909581959F4F0895709561957F4F0895E2
:1052A000EE0FFF1F0590F491E02D0994991B79E012
:1052B00004C0991F961708F0961B881F7A95C9F7A6
:1052C00080950895FC014150504030F00190061641
:1052D000D1F73197CF010895882799270895FB01C9
:1052E000DC0104C08D910190801921F4415050409F
:1052F000C8F7881B990B08956817790768F4FB01B4
:10530000DC01E40FF51FA40FB51F02C002900E923E
:1053100041505040D8F708950C94A22BDC0101C0F5
:105320006D9341505040E0F70895FB01DC0101907E
:105330000D920020E1F70895AEE0B0E0E2EAF9E274
:105340000C949A2C0D891E898F89988D26E02C83C8
:105350001A83098397FF02C080E090E801979E833B
:105360008D83AE01455E5F4F698D7A8DCE010196CA
:105370000E94CC294D815E8157FD0AC02F8138855E
:10538000421753070CF49A01020F131FF801108201
:105390002E96E4E00C94B62CABE0B0E0E2EDF9E23E
:1053A0000C948C2C7C013B018A01FC011782168233
:1053B000838181FFB9C19AE0292ECE0101965C015B
:1053C000F7019381F30193FD859193FF81913F0153
:1053D000882309F446C1853239F493FD859193FF02
:1053E00081913F01853229F4B70190E00E94B62BEC
:1053F000E7CF912C412C512CFFE1F51538F08B3281
:1054000009F188F4803201F1833221F157FC3AC06E
:1054100020ED280F2A3040F556FE1FC0929C200D2B
:105420001124922E06C08D3291F0803379F7689462
:1054300050F8F30193FD859193FF81913F01811114
:10544000DBCF20C0689451F8689452F8F2CF68948A
:1054500053F8EFCF689454F8ECCF429C200D112400
:10546000422E689455F8E5CF8E3229F456FCF9C0E7
:10547000689456F8DECF8C3619F4689457F8D9CF73
:105480008836B9F2982F9F7D95549330C0F08336BB
:10549000A1F18337C1F1833509F05BC0F801C190F8
:1054A000D1908F01692D70E056FC02C06FEF7FEF45
:1054B000C6010E94972B4C01689457F80AC00C5FF4
:1054C0001F4F2FE3298388248394912C6501E8944E
:1054D00057F853FC04C04814190409F018F5342C8B
:1054E0008114910431F5332009F46ACFB70180E2C9
:1054F00090E00E94B62B3A94F6CFF8018081898320
:105500000E5F1F4FE0CFF801C190D1908F01692D40
:1055100070E056FC02C06FEF7FEFC6010E94AB2B1C
:105520004C01D5CFB70180E290E00E94B62B4A949F
:10553000D2CFF60157FC859157FE81916F01B701DB
:1055400090E00E94B62B31103A94F1E08F1A910846
:10555000C7CF843619F0893609F074C0F80157FEB8
:105560006AC061917191819191918F01252D2F7662
:10557000D22E97FF09C090958095709561957F4FC9
:105580008F4F9F4F6894D7F82AE030E0A5010E9422
:10559000E62BC82ECA188C2C5D2CD6FE0CC0E894C5
:1055A00050F8C91440F4D4FE05C0D2FC03C0FD2D50
:1055B000FE7E5F2E892C54FE8FC0FE01EC0DF11D86
:1055C0008081803309F081C0252D297E522E852DC2
:1055D0008870382E53FC8FC050FE89C09C2C8414D8
:1055E00018F44C0C942C981854FE8BC0B70180E32F
:1055F00090E00E94B62B52FE09C088E790E051FE71
:1056000002C088E590E0B7010E94B62BC91408F4E7
:1056100084C0CA94D12C9FEFC91AD90ACA0CDB1CCA
:10562000F60182916F01B70190E00E94B62BAC1495
:10563000BD04B1F758CF61917191072E000C880B12
:10564000990B93CFD52CE894D4F82AE030E0853735
:1056500039F1952D997FD92E8F3601F148F488358F
:10566000A9F0F701868197812B96E2E10C94A82C92
:10567000803749F08837A9F7D4FE02C06894D2F881
:1056800020E130E00DC06894D4F8F6CF54FE03C09A
:10569000E92FE660DE2E20E132E002C028E030E0B3
:1056A000F801D7FE0DC061917191819191918F01A7
:1056B000A5010E94E62BC82ECA18E894D7F86BCF34
:1056C0006191719190E080E0F2CF52FC02C083942E
:1056D0007ECF839483947BCF852D867809F477CF12
:1056E000F6CFB70180E290E00E94B62B8394841439
:1056F000C0F3312C79CF342C3818841408F474CFCB
:10570000F8CF852D867809F481CF8BE251FE80E2B7
:1057100057FC8DE2B70190E077CFB70180E390E0CE
:105720000E94B62B9A9472CF8FEF9FEF9DCFFC0112
:105730000590615070400110D8F7809590958E0FBC
:105740009F1F0895FB01DC0102C001900D924150A2
:105750005040D8F70895FC0161507040019001104D
:10576000D8F7809590958E0F9F1F08950F931F93E4
:10577000CF93DF93182F092FEB018B8181FD09C097
:105780001FEF0FEF812F902FDF91CF911F910F917E
:10579000089582FF14C02E813F818C819D8128173E
:1057A00039073CF4E881F981CF0101969983888318
:1057B00010838E819F8101969F838E83E3CFE8853E
:1057C000F985812F0995892BA1F3DACFFA01AA2750
:1057D000283051F1203181F1E8946F936E7F6E5F34
:1057E0007F4F8F4F9F4FAF4FB1E03ED0B4E03CD0E2
:1057F000670F781F891F9A1FA11D680F791F8A1FC5
:10580000911DA11D6A0F711D811D911DA11D20D02B
:1058100009F468943F912AE0269F11243019305DE5
:105820003193DEF6CF010895462F4770405D4193D6
:10583000B3E00FD0C9F7F6CF462F4F70405D4A3323
:1058400018F0495D31FD4052419302D0A9F7EACFEB
:10585000B4E0A6959795879577956795BA95C9F71A
:1058600000976105710508959B01AC010A2E06940D
:105870005795479537952795BA95C9F7620F731FC6
:10588000841F951FA01D0895F999FECF92BD81BD7B
:10589000F89A992780B50895A6E1B0E044E050E079
:1058A0000C947E2CA8E1B0E042E050E00C947E2CF9
:1058B000262FF999FECF92BD81BDF89A019700B4C9
:1058C000021639F01FBA20BD0FB6F894FA9AF99A69
:1058D0000FBE08950396272F0E94592C0E94582C22
:1058E000252F0E94592C242F0C94592C0196272FD8
:1058F0000E94592C0C94582CDC01CB01FC01F99925
:10590000FECF06C0F2BDE1BDF89A319600B40D920B
:1059100041505040B8F708952F923F924F925F92B6
:105920006F927F928F929F92AF92BF92CF92DF92AF
:10593000EF92FF920F931F93CF93DF93CDB7DEB714
:10594000CA1BDB0B0FB6F894DEBF0FBECDBF0994A8
:105950002A88398848885F846E847D848C849B84FF
:10596000AA84B984C884DF80EE80FD800C811B810D
:10597000AA81B981CE0FD11D0FB6F894DEBF0FBE3C
:10598000CDBFED010895F894FFCF23132B133213ED
:1059900037133C13411346134B13501355135A132B
:1059A0005F13631368136B136E1371137413761301
:1059B0007913AB18AB1803190319D818D818D818CD
:1059C000D8185519E119F019F0194C1AD818D81827
:1059D000551AB21AB21ABB1ABB1ABD1ABB1ABB1A95
:1059E000BB1AB21AB21AC21ABB1ABB1AC21AD527EC
:1059F000FD27E628FD27E62830285128E628A82894
:025A0000B428C8
:105A020001010207070701191A1B1C1D1E1F202175
:105A120022A002CD22D222D022D122052301257337
:105A22000A004C617965723A2044656661756C744E
:105A3200004C617965723A205261697365004C616C
:105A42007965723A204C6F776572004C61796572A4
:105A52003A2041646A757374004C617965723A2028
:105A6200556E6465662D256C640025647825642C6A
:105A7200206B253264203A202563002020202061FB
:105A820062636465666768696A6B6C6D6E6F70717C
:105A920072737475767778797A3132333435363772
:105AA20038393052454254202020202020203B27E4
:105AB200202C2E2F20202036323331F7F6F5F494A5
:105AC2006697C6353400010202020206060609097B
:105AD200090909090F0F0F0F0F0F151515181919BD
